:020000040800F2
:1000000000800220253B0008B90D0008C70D00083C
:10001000CD0D0008D30D0008D90D00080000000028
:10002000000000000000000000000000DF0D0008DC
:10003000ED0D000800000000FB0D0008090E00088F
:10004000753B0008753B0008753B0008753B0008D0
:10005000753B0008150E0008753B0008753B00084D
:10006000753B0008753B0008753B0008753B0008B0
:10007000753B0008753B0008753B0008753B0008A0
:10008000753B0008753B0008753B0008753B000890
:10009000753B0008753B0008753B0008753B000880
:1000A000753B0008753B0008753B0008753B000870
:1000B000753B0008753B000800000000753B000818
:1000C000753B0008753B0008753B0008753B000850
:1000D000753B0008753B0008753B0008753B000840
:1000E000753B0008753B00080000000000000000A0
:1000F0000000000000000000000000000000000000
:1001000000000000753B000800000000753B00087F
:10011000753B000800000000753B0008000000006F
:10012000753B0008753B0008753B0008753B0008EF
:10013000753B0008753B0008753B00080000000097
:10014000753B0008753B0008753B00080000000087
:10015000753B0008753B0008753B0008753B0008BF
:10016000753B0008753B0008753B00080000000067
:1001700000000000753B00080000000000000000C7
:10018000753B0008753B0008753B0008753B00088F
:04019000753B0008B3
:1001940010B5054C237833B9044B13B10448AFF3BD
:1001A40000800123237010BD0C000020000000001B
:1001B400D03B000808B5034B1BB103490348AFF318
:1001C400008008BD0000000010000020D03B0008A3
:1001D40080B582B000AF00F081F90346FB71314B6A
:1001E40000221A70FB79012B02D0022B22D043E0AB
:1001F4002C4B1B78002B13D12A4B01221A7001229D
:100204008021294802F034F901224FF480712648F4
:1002140002F02EF900224021234802F029F93CE0A3
:10022400204B00221A7001224FF4E0711E4802F0A4
:100234001FF932E01B4B1B78002B13D1194B012201
:100244001A7000228021184802F012F901224FF49A
:100254008071154802F00CF901224021124802F085
:1002640007F91AE00F4B00221A7001224FF4E071D3
:100274000D4802F0FDF810E0002280210A4802F047
:10028400F7F801224FF48071074802F0F1F80022D8
:100294004021054802F0ECF800BF00BF0837BD4616
:1002A40080BD00BF280000200008004880B500AFD2
:1002B400054B00221A70054B00221A70012000F031
:1002C40007F800BF80BD00BF2B0000202A000020DB
:1002D40080B588B000AF0346FB7107F10C03002220
:1002E4001A605A609A60DA601A612A4B00221A7006
:1002F40000223021284802F0BBF83023FB600123A0
:100304003B6100237B610023BB6107F10C031946A9
:10031400214801F01BFF002240F601011F4802F0B2
:10032400A7F840F60103FB6001233B6100237B61D6
:100334000023BB6107F10C031946184801F006FFBE
:1003440001224FF48061154802F092F84FF4806363
:10035400FB6001233B6100237B610023BB6107F148
:100364000C0319460D4801F0F1FE0223FB60002343
:100374003B6100237B610023BB6107F10C03194639
:10038400064801F0E3FE064B00221A7000BF203736
:10039400BD4680BD2B000020000800480004004832
:1003A4002A00002080B586B000AF3B1D00221A60F1
:1003B4005A609A60DA601A61154B01221A700022A1
:1003C4002021144802F054F801220121124802F0BD
:1003D4004FF810237B600023BB600023FB603B1DB0
:1003E40019460C4801F0B2FE4FF400637B60002311
:1003F400BB600023FB603B1D1946074801F0A6FEC5
:10040400064B02221A7000BF1837BD4680BD00BFDC
:100414002B00002000080048000400482A000020A7
:1004240080B586B000AF3B1D00221A605A609A6006
:10043400DA601A61154B01221A7001222021144836
:1004440002F016F800220121124802F011F81023DC
:100454007B600023BB600023FB603B1D19460C48F6
:1004640001F074FE4FF400637B600023BB60002343
:10047400FB603B1D1946074801F068FE064B01224C
:100484001A7000BF1837BD4680BD00BF2B00002086
:1004940000080048000400482A00002080B586B007
:1004A40000AF3B1D00221A605A609A60DA601A613C
:1004B400084B00221A700C237B600023BB600023CE
:1004C400FB603B1D1946044801F040FE00BF18378D
:1004D400BD4680BD290000200008004880B400AF5C
:1004E400034B1B781846BD465DF8047B704700BF7C
:1004F4002900002080B582B000AF0421224801F019
:100504009FFF0346FB8008211F4801F099FF034623
:10051400BB80B7F90630002B11D01C4B01221A7096
:100524001B4B1B78012B2AD01A4B1B78002B03D0B2
:100534000120FFF7CDFE22E0FFF772FF1FE0B7F9BD
:100544000430002B11D0114B02221A70104B1B786F
:10055400022B14D00F4B1B78002B03D00120FFF784
:10056400B7FE0CE0FFF71EFF09E0084B00221A70EB
:10057400084B1B78002B02D00120FFF7A9FE00BF17
:100584000837BD4680BD00BF000800482900002090
:100594002A0000202B00002080B400AF00BFBD461D
:1005A4005DF8047B704780B500AF00F06FFC00F08D
:1005B40015F800F0ABF900F091F800F0F3F800F052
:1005C40027F900F065F9FFF7E7FFFFF76FFEFFF784
:1005D40065FFFFF78FFFFFF7FBFDFAE780B5B0B0CB
:1005E40000AF07F17C0344220021184603F0E6FA29
:1005F40007F1680300221A605A609A60DA601A618F
:100604003B1D64220021184603F0D8FA0123FB673E
:100614004FF48033C7F880300223C7F8A430032393
:10062400C7F8A8300223C7F8AC300A23C7F8B030A3
:100634000723C7F8B4300223C7F8B8300223C7F839
:10064400BC3007F17C03184602F0B4F80346002BD3
:1006540001D000F05BFA0F23BB660323FB66002383
:100664003B6700237B670023BB6707F16803032113
:10067400184602F0BFFC0346002B01D000F046FAF6
:1006840044F240037B600023BB634FF08053FB655F
:100694000323BB600223FB6008233B6107237B61C8
:1006A4000223BB610223FB614FF080733B623B1D5D
:1006B400184602F06BFE0346002B01D000F026FA28
:1006C4004FF4007002F020F80346002B01D000F034
:1006D4001DFA00BFC037BD4680BD000080B586B09E
:1006E40000AF3B4600221A605A609A60DA601A61D1
:1006F4005A61294B294A1A60274B00225A60264B1B
:1007040000229A60244B0022DA60234B00221A61F3
:10071400214B04225A61204B00221A761E4B0022E0
:100724005A761D4B0122DA611B4B002283F82020EC
:10073400194B00229A62184B0022DA62164B0022EF
:1007440083F83020144B00225A63134B002283F8A1
:100754003820114800F0AEFD0346002B01D000F014
:10076400D5F90F4B3B6006237B600023BB607F23DE
:10077400FB6004233B6100237B613B46194606482A
:1007840000F0E2FE0346002B01D000F0BFF900BFE9
:100794001837BD4680BD00BF78000020000004501B
:1007A4008000501D80B500AF174B184A1A60164BD5
:1007B40010225A60144B00229A60134B0022DA6014
:1007C400114B4FF440321A610F4B4FF440125A61EF
:1007D4000D4B00221A760C4B00225A760A4B00224B
:1007E4009A76094B0022DA76074B00221A77064BD9
:1007F40000225A77044801F09FFA0346002B01D0E7
:1008040000F084F900BF80BD440100200064004072
:1008140080B500AF1B4B1C4A1A601A4B1B4A5A6026
:10082400184B00229A60174B0122DA60154B002204
:100834001A61144B00225A61124B00229A61114B27
:100844000022DA610F4B00221A620E4801F028FEE2
:100854000346002B01D000F059F90021094801F0AA
:10086400ADFE0346002B01D000F050F900210548ED
:1008740001F0EFFE0346002B01D000F047F900BF62
:1008840080BD00BF2C00002000540040FFEAC000DF
:1008940080B500AF1B4B1C4A1A601A4B4FF482728E
:1008A4005A60184B00229A60164B4FF4E062DA60EB
:1008B400144B00221A61134B00225A61114B4FF45E
:1008C40000729A610F4B0022DA610E4B00221A6209
:1008D4000C4B00225A620B4B00229A62094B0722EE
:1008E400DA62084B00221A63064B08225A63054851
:1008F40003F074F80346002B01D000F007F900BFA1
:1009040080BD00BFE00000200030014080B58AB007
:1009140000AF07F1140300221A605A609A60DA608B
:100924001A61754A744BDB6C43F00403D364724B55
:10093400DB6C03F004033B613B696F4A6E4BDB6C79
:1009440043F08003D3646C4BDB6C03F08003FB60E7
:10095400FB68694A684BDB6C43F00103D364664B64
:10096400DB6C03F00103BB60BB68634A624BDB6C66
:1009740043F00203D364604BDB6C03F002037B603F
:100984007B685D4A5C4BDB6C43F00803D3645A4BD1
:10099400DB6C03F008033B603B68002249F2F01172
:1009A400564801F065FD002240F61141544801F01B
:1009B4005FFD00224FF400414FF0904001F058FDDC
:1009C400002204214F4801F053FD4FF400537B6192
:1009D4000023BB610023FB6107F114031946474858
:1009E40001F0B4FB49F2F0137B610123BB610023E6
:1009F400FB6100233B6207F1140319463F4801F0F1
:100A0400A5FB08237B610023BB610023FB6107F185
:100A1400140319464FF0904001F098FB40F611433F
:100A24007B610123BB610023FB6100233B6207F16F
:100A340014031946324801F089FB04237B61022325
:100A4400BB610023FB6100233B6201237B6207F14E
:100A5400140319462A4801F079FB42F202037B6130
:100A64000023BB610023FB6107F1140319462448EA
:100A740001F06CFB4FF480737B61234BBB6100235B
:100A8400FB6107F1140319464FF0904001F05EFB3F
:100A94004FF400437B610123BB610023FB6100230E
:100AA4003B6207F1140319464FF0904001F04EFBEE
:100AB4004FF440637B610223BB610023FB6103238A
:100AC4003B6207237B6207F1140319460B4801F0CC
:100AD4003DFB04237B610123BB610023FB610023F5
:100AE4003B6207F114031946064801F02FFB00BFCF
:100AF4002837BD4680BD00BF0010024000080048F2
:100B040000040048000C00480000111080B400AF3D
:100B140000BFBD465DF8047B7047000080B582B01D
:100B240000AF124A114B1B6E43F0010313660F4BC7
:100B34001B6E03F001037B607B680C4A0B4B9B6DBF
:100B440043F080539365094B9B6D03F080533B60E6
:100B54003B6800220021052001F0C1FA052001F0C4
:100B6400DAFA00BF0837BD4680BD00BF001002405E
:100B740080B58AB000AF786007F1140300221A60D0
:100B84005A609A60DA601A617B681B68214A934252
:100B94003CD1214A204BDB6C43F40053D3641E4BFD
:100BA400DB6C03F400533B613B691B4A1A4BDB6C5F
:100BB40043F00403D364184BDB6C03F00403FB60C1
:100BC400FB68154A144BDB6C43F00103D364124BEE
:100BD400DB6C03F00103BB60BB680F237B610B2359
:100BE400BB610023FB6107F1140319460B4801F0B4
:100BF400ADFA07237B610B23BB610023FB6107F183
:100C0400140319464FF0904001F0A0FA00BF2837B2
:100C1400BD4680BD0000045000100240000800489A
:100C240080B58AB000AF786007F1140300221A601F
:100C34005A609A60DA601A617B681B68184A9342AA
:100C440029D1184A174B9B6D43F000739365154BDC
:100C54009B6D03F000733B613B69124A114BDB6CE3
:100C640043F00103D3640F4BDB6C03F00103FB601F
:100C7400FB684FF4C0537B610223BB610023FB611B
:100C840003233B6209237B6207F1140319464FF0E7
:100C9400904001F05BFA00BF2837BD4680BD00BF1D
:100CA400006400400010024080B58AB000AF786054
:100CB40007F1140300221A605A609A60DA601A611C
:100CC4007B681B68184A934229D1184A174BDB6C7E
:100CD40043F00103D364154BDB6C03F001033B6168
:100CE4003B694FF4C0637B611223BB610123FB6149
:100CF40003233B6204237B6207F1140319464FF07C
:100D0400904001F023FA094A084B9B6D43F4001309
:100D14009365064B9B6D03F40013FB60FB6800BFF7
:100D24002837BD4680BD00BF00540040001002407B
:100D340080B58AB000AF786007F1140300221A600E
:100D44005A609A60DA601A617B681B68174A93429A
:100D540028D1174A164B1B6E43F480531366144B69
:100D64001B6E03F480533B613B69114A104BDB6CEF
:100D740043F00103D3640E4BDB6C03F00103FB600F
:100D8400FB68F0237B610223BB610023FB61032327
:100D94003B6205237B6207F1140319464FF0904030
:100DA40001F0D4F900BF2837BD4680BD00300140B2
:100DB4000010024080B400AF00BFBD465DF8047B64
:100DC400704780B400AFFEE780B400AFFEE780B4A4
:100DD40000AFFEE780B400AFFEE780B400AF00BF11
:100DE400BD465DF8047B704780B400AF00BFBD46CC
:100DF4005DF8047B704780B400AF00BFBD465DF86A
:100E0400047B704780B500AF00F094F800BF80BD4C
:100E140080B400AF00BFBD465DF8047B704700009E
:100E240080B400AF174A174BD3F8883043F47003EB
:100E3400C2F88830144A144B1B6843F00103136052
:100E4400114B00229A60104A0F4B1B6823F0A853E1
:100E540023F4102313600C4B4FF48052DA600A4AD7
:100E6400094B1B6823F480231360074B00229A610B
:100E7400044B4FF000629A6000BFBD465DF8047BEE
:100E8400704700BF00ED00E00010024080B582B062
:100E940000AF0023FB71032001F016F9002000F0DD
:100EA4000DF80346002B02D00123FB7101E0FFF78C
:100EB40035FEFB7918460837BD4680BD80B584B041
:100EC40000AF78600023FB73174B1B78002B23D0F3
:100ED400164B1A68144B1B7819464FF47A73B3FBFC
:100EE400F1F3B2FBF3F3184601F023F90346002BA8
:100EF4000FD17B680F2B09D8002279684FF0FF309F
:100F040001F0EDF80A4A7B68136007E00123FB73E4
:100F140004E00123FB7301E00123FB73FB7B184610
:100F24001037BD4680BD00BF08000020000000202F
:100F34000400002080B400AF064B1B781A46064B11
:100F44001B681344044A136000BFBD465DF8047B6C
:100F5400704700BF080000206C01002080B400AF7F
:100F6400034B1B681846BD465DF8047B704700BF01
:100F74006C01002080B483B000AF786039607B6876
:100F84009B6823F47C123B681A437B689A6000BF19
:100F94000C37BD465DF8047B704780B483B000AF66
:100FA400786039607B689B6823F0E0723B681A4381
:100FB4007B689A6000BF0C37BD465DF8047B7047C0
:100FC40080B483B000AF78607B689B6803F0E07303
:100FD40018460C37BD465DF8047B704780B487B073
:100FE40000AFF860B9607A603B60FB6860331A4612
:100FF400BB689B0013447B617B691A68084B1340F0
:101004007A6802F0F8413A680A43134343F0004215
:101014007B691A6000BF1C37BD465DF8047B7047CE
:1010240000F0FF0380B485B000AF786039607B685E
:1010340060331A463B689B001344FB60FB681B68E3
:1010440003F0F84318461437BD465DF8047B704737
:1010540080B487B000AFF860B9607A60FB68603331
:101064001A46BB689B0013447B617B691B6823F0B1
:1010740000427B681A437B691A6000BF1C37BD4677
:101084005DF8047B704780B483B000AF786039604A
:101094007B685B6923F000423B681A437B685A61B2
:1010A40000BF0C37BD465DF8047B704780B487B041
:1010B40000AFF860B9607A60FB6830331A46BB68E9
:1010C4001B0A9B0003F00C0313447B617B691A68C1
:1010D400BB6803F01F031F2101FA03F3DB431A402B
:1010E4007B689B0E03F01F01BB6803F01F0301FA2A
:1010F40003F31A437B691A6000BF1C37BD465DF8D1
:10110400047B704780B487B000AFF860B9607A6040
:10111400FB6814331A46BB685B0E9B0003F00403A0
:1011240013447B617B691A68BB681B0D03F01F03C2
:10113400072101FA03F3DB431A40BB681B0D03F0DC
:101144001F03796801FA03F31A437B691A6000BF2D
:101154001C37BD465DF8047B7047000080B485B041
:1011640000AFF860B9607A60FB68D3F8B020BB6860
:10117400C3F31203DB431A407B6803F018030849E6
:10118400D940BB680B40C3F312031A43FB68C3F88E
:10119400B02000BF1437BD465DF8047B704700BF24
:1011A400FFFF070080B483B000AF78607B689B6862
:1011B40023F0204323F03F037A68936000BF0C3789
:1011C400BD465DF8047B704780B483B000AF78609F
:1011D4007B689B6803F00053B3F1005F01D10123E6
:1011E40000E0002318460C37BD465DF8047B7047C9
:1011F40080B483B000AF78607B689B6823F01043B1
:1012040023F03F0343F080527B689A6000BF0C37A1
:10121400BD465DF8047B704780B483B000AF78604E
:101224007B689B6803F08053B3F1805F01D1012395
:1012340000E0002318460C37BD465DF8047B704778
:1012440080B483B000AF78607B689B6803F00103CF
:10125400012B01D1012300E0002318460C37BD46C1
:101264005DF8047B704780B483B000AF78607B681E
:101274009B6803F00403042B01D1012300E0002345
:1012840018460C37BD465DF8047B704780B483B0C4
:1012940000AF78607B689B6803F00803082B01D1DA
:1012A400012300E0002318460C37BD465DF8047B9B
:1012B4007047000080B588B000AF78600023FB77EA
:1012C4000023BB607B68002B01D101232DE17B68E7
:1012D4001B69002B7B689B6D002B09D17868FFF795
:1012E40047FC7B680022DA657B68002283F854207F
:1012F4007B681B681846FFF767FF0346002B04D082
:101304007B681B681846FFF74DFF7B681B6818460F
:10131400FFF782FF0346002B13D17B681B68184636
:10132400FFF766FF834B1B689B09834AA2FB0323D9
:101334009B09BB6002E0BB68013BBB60BB68002B40
:10134400F9D17B681B681846FFF766FF0346002B3C
:101354000DD17B689B6D43F010027B689A657B68B6
:10136400DB6D43F001027B68DA650123FB777B6860
:101374001B681846FFF777FF78617B689B6D03F065
:101384001003002B40F0C8807B69002B40F0C48020
:101394007B689B6D23F4817343F002027B689A653A
:1013A4007B681B681846FFF74BFF0346002B0BD1E5
:1013B4006248FFF745FF0346002B05D17B685B6855
:1013C40019465F48FFF7D6FD7B685B7E5A037B684E
:1013D4005B6B1A437B68DB681A437B689B681A4320
:1013E4007B6893F820301B041343BB617B6893F83C
:1013F4002030012B06D17B685B6A013B5B04BA6930
:101404001343BB617B689B6A002B09D07B689B6A92
:1014140003F470727B68DB6A1343BA691343BB61DC
:101424007B681A687B681B68D968464B0B40B969AE
:101434000B43D3607B681B681846FFF714FF3861C1
:101444007B681B681846FFF721FFF8603B69002B97
:1014540040D1FB68002B3DD17B68DA6C7B681B7E36
:101464009B031A437B6893F830305B001343BB61E2
:101474007B681A687B681B68DB6823F4804323F06D
:101484000603B9690B43D3607B6893F83830012BAA
:1014940018D17B681A687B681B681B6923F4FF6397
:1014A40023F004037968C86B7968096C0843796888
:1014B400496C08437968896C01430B4343F0010389
:1014C400136107E07B681B687A681268126922F06E
:1014D40001021A617B681B69012B0CD17B681B68B4
:1014E4007A681268126B22F00F017A68D269013AA5
:1014F4000A431A6307E07B681B687A681268126BF8
:1015040022F00F021A637B689B6D23F0030343F000
:1015140001027B689A6507E07B689B6D43F01002CB
:101524007B689A650123FB77FB7F18462037BD460D
:1015340080BD00BF00000020632D3E050000045064
:101544000003045007C0F0FF80B5B6B000AF786068
:101554003960002387F8D7300023FB607B6893F859
:101564005430012B01D10223D2E37B68012283F89A
:1015740054207B681B681846FFF775FE0346002B52
:1015840040F0B7833B685B68052B24D83B685B68F5
:10159400023B032B1BD801A252F823F0B11500081B
:1015A400B9150008C1150008C91500083B680C22CC
:1015B4005A6010E03B6812225A600CE03B68182223
:1015C4005A6008E03B684FF480725A6003E03B685D
:1015D40006225A6000BF7B6818683B6859683B68FC
:1015E4001B681A46FFF762FD7B681B681846FFF705
:1015F4003AFEC7F8D0007B681B681846FFF746FE22
:10160400C7F8CC00D7F8D030002B40F0C181D7F810
:10161400CC30002B40F0BC813B689B68B3F1004F99
:101624000FD17B6818683B681B6800221946FFF7D6
:1016340069FD7B681B684FF000411846FFF723FDE6
:101644000EE07B6818683B6819683B689B681A461B
:10165400FFF758FD7B681B6800211846FFF713FD50
:101664003B685A697B681B68DB68DB0803F003038B
:101674005B0002FA03F3C7F8C8303B681B69042B0C
:101684000AD07B6818683B6819693B681A68D7F800
:10169400C830FFF7A3FC7BE17B681B680021184678
:1016A400FFF7C0FC0346C3F31203002B0AD17B6887
:1016B4001B6800211846FFF7B5FC03469B0E03F098
:1016C4001F021EE07B681B6800211846FFF7AAFC76
:1016D4000346C7F8BC30D7F8BC3093FAA3F3C7F875
:1016E400B830D7F8B830C7F8C030D7F8C030002BBE
:1016F40001D1202304E0D7F8C030B3FA83F3DBB27E
:101704001A463B681B68C3F31203002B05D13B68E0
:101714001B689B0E03F01F0318E03B681B68C7F8A7
:10172400B030D7F8B03093FAA3F3C7F8AC30D7F899
:10173400AC30C7F8B430D7F8B430002B01D1202333
:1017440004E0D7F8B430B3FA83F3DBB29A4206D19B
:101754007B681B68002200211846FFF779FC7B6830
:101764001B6801211846FFF75DFC0346C3F312030F
:10177400002B0AD17B681B6801211846FFF752FC35
:1017840003469B0E03F01F021EE07B681B680121C9
:101794001846FFF747FC0346C7F8A430D7F8A4302F
:1017A40093FAA3F3C7F8A030D7F8A030C7F8A8304D
:1017B400D7F8A830002B01D1202304E0D7F8A830B3
:1017C400B3FA83F3DBB21A463B681B68C3F3120314
:1017D400002B05D13B681B689B0E03F01F0318E028
:1017E4003B681B68C7F89830D7F8983093FAA3F38E
:1017F400C7F89430D7F89430C7F89C30D7F89C30A9
:10180400002B01D1202304E0D7F89C30B3FA83F3F2
:10181400DBB29A4206D17B681B680022012118467C
:10182400FFF716FC7B681B6802211846FFF7FAFBDA
:101834000346C3F31203002B0AD17B681B68022101
:101844001846FFF7EFFB03469B0E03F01F021EE052
:101854007B681B6802211846FFF7E4FB0346C7F8C0
:101864008C30D7F88C3093FAA3F3C7F88830D7F8C4
:101874008830C7F89030D7F89030002B01D120235E
:1018840004E0D7F89030B3FA83F3DBB21A463B682E
:101894001B68C3F31203002B05D13B681B689B0E26
:1018A40003F01F0316E03B681B68C7F88030D7F8C5
:1018B400803093FAA3F3FB67FB6FC7F88430D7F843
:1018C4008430002B01D1202304E0D7F88430B3FA0C
:1018D40083F3DBB29A4206D17B681B6800220221A3
:1018E4001846FFF7B5FB7B681B6803211846FFF712
:1018F40099FB0346C3F31203002B0AD17B681B68D0
:1019040003211846FFF78EFB03469B0E03F01F02CC
:1019140017E07B681B6803211846FFF783FB034627
:101924007B677B6F93FAA3F33B673B6FBB67BB6F2C
:10193400002B01D1202303E0BB6FB3FA83F3DBB2A6
:101944001A463B681B68C3F31203002B05D13B689E
:101954001B689B0E03F01F0311E03B681B68BB660A
:10196400BB6E93FAA3F37B667B6EFB66FB6E002B68
:1019740001D1202303E0FB6EB3FA83F3DBB29A4276
:1019840006D17B681B68002203211846FFF760FB21
:101994007B681B681846FFF753FC0346002B40F096
:1019A4003F817B6818683B6819683B68DB681A46A6
:1019B400FFF7D4FB3B68DB688E4A934240F03081EA
:1019C4007B6818683B681B68C3F31203002B0BD1B8
:1019D4003B681B689B0E013303F01F03092B94BF64
:1019E40001230023DBB219E03B681B68FB65FB6D38
:1019F40093FAA3F3BB65BB6D3B663B6E002B01D131
:101A0400202303E03B6EB3FA83F3DBB2013303F02C
:101A14001F03092B94BF01230023DBB2002B79D0D1
:101A24003B681B68C3F31203002B07D13B681B6898
:101A34009B0E01339B0603F0F84215E03B681B68DC
:101A44003B653B6D93FAA3F3FB64FB6C7B657B6D99
:101A5400002B01D1202303E07B6DB3FA83F3DBB2C7
:101A640001339B0603F0F8423B681B68C3F312037F
:101A7400002B09D13B681B689B0E013303F01F0345
:101A8400012101FA03F317E03B681B687B647B6C5C
:101A940093FAA3F33B643B6CBB64BB6C002B01D196
:101AA400202303E0BB6CB3FA83F3DBB2013303F00E
:101AB4001F03012101FA03F342EA03013B681B6897
:101AC400C3F31203002B0AD13B681B689B0E01333E
:101AD40003F01F0213465B0013441B0518E03B6828
:101AE4001B68BB63BB6B93FAA3F37B637B6BFB63E6
:101AF400FB6B002B01D1202303E0FB6BB3FA83F3D0
:101B0400DBB2013303F01F0213465B0013441B05D1
:101B14000B4380E03B681B68C3F31203002B07D11F
:101B24003B681B689B0E01339B0603F0F84215E0EB
:101B34003B681B68FB62FB6A93FAA3F3BB62BB6A54
:101B44003B633B6B002B01D1202303E03B6BB3FAD7
:101B540083F3DBB201339B0603F0F8423B681B6856
:101B6400C3F31203002B09D13B681B689B0E01339E
:101B740003F01F03012101FA03F317E03B681B681C
:101B84003B623B6A93FAA3F3FB61FB697B627B6A6A
:101B9400002B01D1202303E07B6AB3FA83F3DBB289
:101BA400013303F01F03012101FA03F342EA0301A5
:101BB4003B681B68C3F31203002B0DD13B681B6801
:101BC4009B0E013303F01F0213465B0013441E3BBC
:101BD4001B0543F000731DE03B681B687B617B6958
:101BE40093FAA3F33B613B69BB61BB69002B03D14F
:101BF400202305E000007F40BB69B3FA83F3DBB226
:101C0400013303F01F0213465B0013441E3B1B0504
:101C140043F000730B433A6892681946FFF772FA6F
:101C24003B681A683C4B1340002B6BD03B48FFF7D2
:101C3400C7F9C7F8C4003B681B68394A934226D1E8
:101C4400D7F8C43003F40003002B20D17B681B6851
:101C5400344A934256D1D7F8C43043F400031946AA
:101C64002E48FFF79AF9304B1B689B092F4AA2FBB9
:101C740003239A0913465B0013449B00FB6002E0B4
:101C8400FB68013BFB60FB68002BF9D13AE03B6841
:101C94001B68274A934213D1D7F8C43003F08073EA
:101CA400002B0DD17B681B681E4A93422AD1D7F8BA
:101CB400C43043F0807319461848FFF76EF921E0E9
:101CC4003B681B681B4A93421CD1D7F8C43003F409
:101CD4008003002B16D17B681B68124A934211D1F2
:101CE400D7F8C43043F4800319460C48FFF755F97C
:101CF40008E07B689B6D43F020027B689A650123B2
:101D040087F8D7307B68002283F8542097F8D730BF
:101D14001846D837BD4680BD000008800003045033
:101D2400000052C70000045000000020632D3E054F
:101D3400000084CB0100008080B584B000AF7860DF
:101D44007B68002B01D10123ECE07B6893F8203001
:101D5400DBB2002B02D17868FEF762FF7B681B6858
:101D64007A681268126822F002021A60FFF7F6F825
:101D7400F86012E0FFF7F2F80246FB68D31A0A2B68
:101D84000BD97B685B6A43F400327B685A627B68D8
:101D9400052283F820200123C4E07B681B685B686C
:101DA40003F00203002BE5D17B681B687A68126894
:101DB400126842F001021A60FFF7D0F8F86012E0EE
:101DC400FFF7CCF80246FB68D31A0A2B0BD97B68C1
:101DD4005B6A43F400327B685A627B68052283F8AD
:101DE400202001239EE07B681B685B6803F00103ED
:101DF400002BE5D07B681B7E012B08D17B681B6818
:101E04007A681268126842F080021A6007E07B6800
:101E14001B687A681268126822F080021A607B6874
:101E24005B7E012B08D17B681B687A681268126894
:101E340042F040021A6007E07B681B687A68126807
:101E4400126822F040021A607B689B7E012B08D145
:101E54007B681B687A681268126842F020021A6074
:101E640007E07B681B687A681268126822F0200217
:101E74001A607B68DB7E012B08D17B681B687A685B
:101E84001268126822F010021A6007E07B681B686F
:101E94007A681268126842F010021A607B681B7F2D
:101EA400012B08D17B681B687A681268126842F0BB
:101EB40008021A6007E07B681B687A681268126877
:101EC40022F008021A607B685B7F012B08D17B68D3
:101ED4001B687A681268126842F004021A6007E00C
:101EE4007B681B687A681268126822F004021A6020
:101EF4007B681B687A6891687A68D26811437A684B
:101F0400126911437A68526911437A685268013A36
:101F14000A43DA617B6800225A627B68012283F8F3
:101F24002020002318461037BD4680BD80B485B0FC
:101F340000AF78607B6803F00703FB600C4BDB6841
:101F4400BB60BA684FF6FF031340BB60FB681A021C
:101F5400BB68134343F0BF6343F40033BB60044ADC
:101F6400BB68D36000BF1437BD465DF8047B70477F
:101F740000ED00E080B400AF044BDB681B0A03F003
:101F840007031846BD465DF8047B704700ED00E08A
:101F940080B483B000AF0346FB7197F90730002B80
:101FA4000BDB094997F907305B09FA7902F01F0244
:101FB400012000FA02F241F8232000BF0C37BD468D
:101FC4005DF8047B704700BF00E100E080B483B09B
:101FD40000AF03463960FB7197F90730002B0ADB29
:101FE4000D4997F907303A68D2B21201D2B20B44C4
:101FF40083F800230AE00949FB7903F00F03043B4B
:102004003A68D2B21201D2B20B441A7600BF0C372E
:10201400BD465DF8047B704700E100E000ED00E0A0
:1020240080B489B000AFF860B9607A60FB6803F0EF
:102034000703FB61FB69C3F10703042B28BF0423D7
:10204400BB61FB690433062B02D9FB69033B00E047
:1020540000237B610122BB6902FA03F35A1EBB68A9
:102064001A407B699A4001217B6901FA03F3591EE6
:102074007B680B40134318462437BD465DF8047B48
:102084007047000080B582B000AF78607B68013B88
:10209400B3F1807F01D301230FE00A4A7B68013B3F
:1020A40053600F214FF0FF30FFF790FF054B0022E4
:1020B4009A60044B07221A60002318460837BD466D
:1020C40080BD00BF10E000E080B582B000AF786052
:1020D4007868FFF72BFF00BF0837BD4680BD80B589
:1020E40086B000AF0346B9607A60FB7300237B615E
:1020F400FFF740FF78617A68B9687869FFF790FF65
:10210400024697F90F3011461846FFF75FFF00BFEC
:102114001837BD4680BD80B582B000AF0346FB7161
:1021240097F907301846FFF733FF00BF0837BD465D
:1021340080BD80B582B000AF78607868FFF7A2FFF9
:10214400034618460837BD4680BD000080B487B0FA
:1021540000AF7860396000237B6154E13B681A6802
:1021640001217B6901FA03F31340FB60FB68002B38
:1021740000F046813B685B68012B0BD03B685B68D1
:10218400022B07D03B685B68112B03D03B685B686C
:10219400122B30D17B689B683B617B695B00032217
:1021A40002FA03F3DB433A6913403B613B68DA68A4
:1021B4007B695B0002FA03F33A6913433B617B6872
:1021C4003A699A607B685B683B6101227B6902FA29
:1021D40003F3DB433A6913403B613B685B681B09CB
:1021E40003F001027B6902FA03F33A6913433B618A
:1021F4007B683A695A607B68DB683B617B695B009A
:10220400032202FA03F3DB433A6913403B613B6860
:102214009A687B695B0002FA03F33A6913433B61F2
:102224007B683A69DA603B685B68022B03D03B68E1
:102234005B68122B23D17B69DA087B68083253F878
:1022440022303B617B6903F007039B000F2202FAF3
:1022540003F3DB433A6913403B613B681A697B69CA
:1022640003F007039B0002FA03F33A6913433B614B
:102274007B69DA087B680832396943F822107B6885
:102284001B683B617B695B00032202FA03F3DB43B7
:102294003A6913403B613B685B6803F003027B6966
:1022A4005B0002FA03F33A6913433B617B683A69C2
:1022B4001A603B685B6803F08053002B00F0A08039
:1022C400584A584B1B6E43F001031366554B1B6E63
:1022D40003F00103BB60BB68534A7B699B0802336C
:1022E40052F823303B617B6903F003039B000F2208
:1022F40002FA03F3DB433A6913403B617B68B3F1B1
:10230400904F19D07B68494A934213D07B68484A5E
:1023140093420DD07B68474A934207D07B68464A74
:10232400934201D1042308E0072306E0032304E0D9
:10233400022302E0012300E000237A6902F0030291
:10234400920093403A6913433B6137497B699B0888
:1023540002333A6941F82320384B1B683B61FB6820
:10236400DB433A6913403B613B685B6803F48033A9
:10237400002B03D03A69FB6813433B612F4A3B6946
:1023840013602E4B5B683B61FB68DB433A69134087
:102394003B613B685B6803F40033002B03D03A696C
:1023A400FB6813433B61254A3B695360234B9B689D
:1023B4003B61FB68DB433A6913403B613B685B6804
:1023C40003F48013002B03D03A69FB6813433B6189
:1023D4001A4A3B699360194BDB683B61FB68DB433A
:1023E4003A6913403B613B685B6803F40013002BBC
:1023F40003D03A69FB6813433B61104A3B69D360DD
:102404007B6901337B613B681A687B6922FA03F3B9
:10241400002B7FF4A3AE00BF1C37BD465DF8047BE0
:10242400704700BF00100240000001400004004853
:1024340000080048000C0048001000480004014057
:1024440080B485B000AF78600B467B807B681A69E6
:102454007B881340002B02D00123FB7301E000238F
:10246400FB73FB7B18461437BD465DF8047B70474D
:1024740080B483B000AF78600B467B8013467B70DA
:102484007B78002B03D07A887B689A6102E07A8893
:102494007B689A6200BF0C37BD465DF8047B7047C9
:1024A40080B582B000AF78607B68002B01D1012336
:1024B40080E07B6893F84130DBB2002B06D17B6867
:1024C400002283F840207868FEF7EEFB7B68242224
:1024D40083F841207B681B687A681268126822F0CE
:1024E40001021A607B681B687A68526822F0706285
:1024F4001A617B681B687A681268926822F4004249
:102504009A607B68DB68012B07D17B681B687A685B
:10251400926842F400429A6006E07B681B687A681D
:10252400926842F404429A607B68DB68022B04D10F
:102534007B681B684FF400625A607B681A687B688A
:102544001B685B6843F0007343F4004353607B688B
:102554001B687A681268D26822F40042DA607B68E9
:102564001B687A6811697A68526911437A689269BA
:1025740012020A43DA607B681B687A68D1697A6858
:10258400126A0A431A607B681B687A6812681268C8
:1025940042F001021A607B6800225A647B682022A0
:1025A40083F841207B6800221A637B68002283F849
:1025B4004220002318460837BD4680BD80B483B04E
:1025C40000AF786039607B6893F84130DBB2202B30
:1025D40038D17B6893F84030012B01D1022332E0DB
:1025E4007B68012283F840207B68242283F8412001
:1025F4007B681B687A681268126822F001021A600C
:102604007B681B687A681268126822F480521A6028
:102614007B681B687A68126811683A680A431A6012
:102624007B681B687A681268126842F001021A60BB
:102634007B68202283F841207B68002283F84020B5
:10264400002300E0022318460C37BD465DF8047BE6
:10265400704780B485B000AF786039607B6893F8C8
:102664004130DBB2202B39D17B6893F84030012B09
:1026740001D1022333E07B68012283F840207B6888
:10268400242283F841207B681B687A6812681268E8
:1026940022F001021A607B681B681B68FB60FB6800
:1026A40023F47063FB603B681B02FA681343FB600E
:1026B4007B681B68FA681A607B681B687A68126812
:1026C400126842F001021A607B68202283F84120DC
:1026D4007B68002283F84020002300E00223184690
:1026E4001437BD465DF8047B7047000080B400AF2A
:1026F400044B1B6803F4C0631846BD465DF8047BB5
:10270400704700BF0070004080B485B000AF7860AF
:102714007B68B3F5007F30D1234B1B6803F4C0639F
:10272400B3F5007F38D0204A1F4B1B6823F4C063E5
:1027340043F4007313601D4B1B68322202FB03F346
:102744001B4AA2FB03239B0C0133FB6002E0FB68E2
:10275400013BFB60144B5B6903F48063B3F5806F4A
:1027640002D1FB68002BF2D10F4B5B6903F4806349
:10277400B3F5806F10D103230FE00B4B1B6803F4F8
:10278400C063B3F5806F07D0074A074B1B6823F477
:10279400C06343F480631360002318461437BD46B6
:1027A4005DF8047B704700BF00700040000000200B
:1027B40083DE1B4380B588B000AF78607B68002B54
:1027C40002D1012300F011BCA04B9B6803F00C0361
:1027D400BB619E4BDB6803F003037B617B681B6872
:1027E40003F01003002B00F0E480BB69002B07D03A
:1027F400BB690C2B40F08B807B69012B40F08780F8
:10280400924B1B6803F00203002B05D07B689B6985
:10281400002B01D10123E8E37B681A6A8B4B1B6808
:1028240003F00803002B04D0884B1B6803F0F0036B
:1028340005E0864BD3F894301B0903F0F0039A4269
:1028440023D97B681B6A184600F040FD0346002B21
:1028540001D00123C9E37D4A7C4B1B6843F0080384
:1028640013607A49794B1B6823F0F0027B681B6A7A
:1028740013430B607549754B5B6823F47F427B6897
:10288400DB691B0213434B6025E0704A6F4B1B68E6
:1028940043F0080313606D496C4B1B6823F0F0028E
:1028A4007B681B6A13430B606849684B5B6823F4BD
:1028B4007F427B68DB691B0213434B60BB69002BBF
:1028C40009D17B681B6A184600F000FD0346002B03
:1028D40001D0012389E300F06FFC01465B4B9B6848
:1028E4001B0903F00F035A4AD35C03F01F0321FAB8
:1028F40003F3584A1360584B1B681846FEF7DEFA78
:102904000346FB73FB7B002B52D0FB7B6DE37B68A0
:102914009B69002B32D04D4A4C4B1B6843F001039A
:102924001360FEF71BFB386108E0FEF717FB024655
:102934003B69D31A022B01D9032356E3434B1B688B
:1029440003F00203002BF0D0404A404B1B6843F0D5
:10295400080313603D493D4B1B6823F0F0027B687C
:102964001B6A13430B603949384B5B6823F47F427D
:102974007B68DB691B0213434B601AE0334A334B19
:102984001B6823F001031360FEF7E8FA386108E0DE
:10299400FEF7E4FA02463B69D31A022B01D903235A
:1029A40023E32A4B1B6803F00203002BF0D100E061
:1029B40000BF7B681B6803F00103002B73D0BB6965
:1029C400082B05D0BB690C2B0ED17B69032B0BD1D3
:1029D4001E4B1B6803F40033002B63D07B685B68D9
:1029E400002B5FD1012300E37B685B68B3F5803F74
:1029F40006D1164A154B1B6843F4803313601DE05F
:102A04007B685B68B3F5A02F0CD1104A0F4B1B6891
:102A140043F4802313600D4A0C4B1B6843F480334A
:102A240013600BE0094A094B1B6823F480331360DD
:102A3400064A064B1B6823F4802313607B685B689B
:102A4400002B1BD0FEF78AFA386110E00010024018
:102A5400E83B00080000002004000020FEF77EFA96
:102A640002463B69D31A642B01D90323BDE2AF4B61
:102A74001B6803F40033002BF0D014E0FEF76EFA69
:102A8400386108E0FEF76AFA02463B69D31A642B00
:102A940001D90323A9E2A54B1B6803F40033002BDF
:102AA400F0D100E000BF7B681B6803F00203002B39
:102AB40060D0BB69042B05D0BB690C2B19D17B6991
:102AC400022B16D1994B1B6803F48063002B05D0AD
:102AD4007B68DB68002B01D1012386E29349934B89
:102AE4005B6823F0FE427B681B691B0613434B6043
:102AF40040E07B68DB68002B23D08C4A8B4B1B683F
:102B040043F480731360FEF729FA386108E0FEF796
:102B140025FA02463B69D31A022B01D9032364E246
:102B2400824B1B6803F48063002BF0D07F497F4BFA
:102B34005B6823F0FE427B681B691B0613434B60F2
:102B440018E07A4A794B1B6823F480731360FEF70C
:102B540005FA386108E0FEF701FA02463B69D31A28
:102B6400022B01D9032340E2704B1B6803F48063FA
:102B7400002BF0D17B681B6803F00803002B3CD0CA
:102B84007B685B69002B1CD0684A684BD3F894308F
:102B940043F00103C2F89430FEF7E0F9386108E02D
:102BA400FEF7DCF902463B69D31A022B01D9032351
:102BB4001BE25E4BD3F8943003F00203002BEFD0FA
:102BC4001BE05A4A594BD3F8943023F00103C2F85E
:102BD4009430FEF7C3F9386108E0FEF7BFF9024606
:102BE4003B69D31A022B01D90323FEE14F4BD3F8DF
:102BF400943003F00203002BEFD17B681B6803F0D1
:102C04000403002B00F0A6800023FB77474B9B6D49
:102C140003F08053002B0DD1444A444B9B6D43F089
:102C240080539365414B9B6D03F08053BB60BB683D
:102C34000123FB773E4B1B6803F48073002B18D1F0
:102C44003B4A3B4B1B6843F480731360FEF786F9E1
:102C5400386108E0FEF782F902463B69D31A022B79
:102C640001D90323C1E1324B1B6803F48073002BA9
:102C7400F0D07B689B68012B08D12C4A2B4BD3F8EE
:102C8400903043F00103C2F8903024E07B689B68E5
:102C9400052B10D1254A254BD3F8903043F004037B
:102CA400C2F89030214A214BD3F8903043F001030D
:102CB400C2F890300FE01D4A1C4BD3F8903023F03B
:102CC4000103C2F89030194A184BD3F8903023F01E
:102CD4000403C2F890307B689B68002B16D0FEF783
:102CE4003DF938610AE0FEF739F902463B69D31A27
:102CF40041F28832934201D9032376E10B4BD3F896
:102D0400903003F00203002BEDD01AE0FEF726F911
:102D140038610FE0FEF722F902463B69D31A41F20B
:102D24008832934206D903235FE100BF00100240BA
:102D340000700040AA4BD3F8903003F00203002B3C
:102D4400E8D1FB7F012B05D1A54AA54B9B6D23F050
:102D5400805393657B681B6803F02003002B3CD0F1
:102D64007B685B6A002B1CD09D4A9D4BD3F898303E
:102D740043F00103C2F89830FEF7F0F8386108E038
:102D8400FEF7ECF802463B69D31A022B01D9032360
:102D94002BE1934BD3F8983003F00203002BEFD0D0
:102DA4001BE08F4A8E4BD3F8983023F00103C2F80E
:102DB4009830FEF7D3F8386108E0FEF7CFF8024602
:102DC4003B69D31A022B01D903230EE1844BD3F8B8
:102DD400983003F00203002BEFD17B689B6A002B31
:102DE40000F002817B689B6A022B40F0C5807C4B1B
:102DF400DB687B617B6903F003027B68DB6A9A42D0
:102E04002CD17B6903F070027B681B6B013B1B01B7
:102E14009A4223D17B6903F4FE427B685B6B1B02FD
:102E24009A421BD17B6903F078427B689B6BDB067B
:102E34009A4213D17B6903F4C0027B68DB6B5B08A5
:102E4400013B5B059A4209D17B6903F0C0627B6850
:102E54001B6C5B08013B5B069A4267D0BB690C2B79
:102E640062D05F4B1B6803F08063002B01D0012309
:102E7400BBE05B4A5A4B1B6823F080731360FEF778
:102E84006DF8386108E0FEF769F802463B69D31A29
:102E9400022B01D90323A8E0514B1B6803F00073F4
:102EA400002BF0D14E484E4BDA684E4B13407A68F3
:102EB400D16A7A68126B013A120111437A68526B33
:102EC400120211437A68D26B5208013A5205114337
:102ED4007A68126C5208013A520611437A68926B6E
:102EE400D2060A431343C3603D4A3D4B1B6843F07B
:102EF400807313603A4A3A4BDB6843F08073D360C3
:102F0400FEF72CF8386108E0FEF728F802463B6922
:102F1400D31A022B01D9032367E0314B1B6803F05A
:102F24000073002BF0D05FE001235EE02C4B1B68A4
:102F340003F00073002B57D1294A294B1B6843F037
:102F440080731360264A264BDB6843F08073D3609A
:102F5400FEF704F8386108E0FEF700F802463B6922
:102F6400D31A022B01D903233FE01D4B1B6803F046
:102F74000073002BF0D037E0BB690C2B2DD0184A1E
:102F8400174B1B6823F080731360154B1B6803F009
:102F94000063002B05D1124A114BDB6823F00303B5
:102FA400D3600F4A0E4BDB6823F0887323F480331D
:102FB400D360FDF7D3FF386108E0FDF7CFFF024689
:102FC4003B69D31A022B01D903230EE0044B1B687F
:102FD40003F00073002BF0D106E0012305E000BFED
:102FE400001002408C809D01002318462037BD4606
:102FF40080BD00BF80B584B000AF786039607B6865
:10300400002B01D10123C8E0664B1B6803F00702C3
:103014003B689A4210D26349624B1B6823F0070253
:103024003B6813430B605F4B1B6803F007023B686C
:103034009A4201D00123B0E07B681B6803F00103CE
:10304400002B4CD07B685B68032B07D1564B1B6865
:1030540003F00073002B21D101239EE07B685B68A1
:10306400022B07D1504B1B6803F40033002B15D1FE
:10307400012392E07B685B68002B07D14A4B1B68F5
:1030840003F00203002B09D1012386E0464B1B68A1
:1030940003F48063002B01D101237EE04249424BBB
:1030A4009B6823F003027B685B6813438B60FDF726
:1030B40055FFF8600AE0FDF751FF0246FB68D31A9A
:1030C40041F28832934201D9032366E0364B9B6870
:1030D40003F00C027B685B689B009A42EBD17B682F
:1030E4001B6803F00203002B08D02F492E4B9B686A
:1030F40023F0F0027B689B6813438B60294B1B68A9
:1031040003F007023B689A4210D92649254B1B68F5
:1031140023F007023B6813430B60224B1B6803F048
:1031240007023B689A4201D0012336E07B681B68A2
:1031340003F00403002B08D01B491B4B9B6823F4AA
:10314400E0627B68DB6813438B607B681B6803F079
:103154000803002B09D01449134B9B6823F46052D5
:103164007B681B69DB0013438B6000F025F8014684
:103174000D4B9B681B0903F00F030C4AD35C03F04F
:103184001F0321FA03F30A4A13600A4B1B6818460B
:10319400FDF794FE0346FB72FB7A18461037BD46D2
:1031A40080BD00BF0020024000100240E83B000840
:1031B400000000200400002080B489B000AF002388
:1031C400FB610023BB613D4B9B6803F00C033B6137
:1031D4003A4BDB6803F00303FB603B69002B05D02B
:1031E4003B690C2B21D1FB68012B1ED1334B1B688F
:1031F40003F00803002B07D1304BD3F894301B0A9B
:1032040003F00F03FB6105E02C4B1B681B0903F063
:103214000F03FB612A4AFB6952F82330FB613B69C7
:10322400002B0DD1FB69BB610AE03B69042B02D181
:10323400244BBB6104E03B69082B01D1224BBB61E9
:103244003B690C2B33D11D4BDB6803F00303BB60DC
:10325400BB68022B02D0032B03D005E0194B7B6122
:1032640005E0194B7B6102E0FB697B6100BF134BF6
:10327400DB681B0903F0070301337B600F4BDB683A
:103284001B0A03F07F037A6902FB03F27B68B2FB3B
:10329400F3F37B61094BDB685B0E03F0030301333B
:1032A4005B003B607A693B68B2FBF3F3BB61BB69CB
:1032B40018462437BD465DF8047B70470010024071
:1032C400F83B00080024F400002D310180B586B0DD
:1032D40000AF786000233B612A4B9B6D03F0805361
:1032E400002B03D0FFF702FA786114E0254A254B3E
:1032F4009B6D43F080539365224B9B6D03F0805389
:10330400FB60FB68FFF7F2F978611E4A1D4B9B6D69
:1033140023F0805393657B69B3F5007F0BD17B6801
:10332400802B19D97B68A02B02D902233B6113E0BF
:1033340001233B6110E07B68802B02D903233B61AE
:103344000AE07B68802B02D102233B6104E07B68A6
:10335400702B01D101233B610B490B4B1B6823F0FC
:1033640007023B6913430B60074B1B6803F007021A
:103374003B699A4201D0012300E000231846183724
:10338400BD4680BD001002400020024080B586B0DA
:1033940000AF78600023FB740023BB747B681B6858
:1033A40003F40063002B2FD07B68DB6CB3F5000FB4
:1033B40005D0B3F5400F15D0002B07D00FE05D4AC0
:1033C4005C4BDB6843F48033D3600CE07B680433EC
:1033D4000021184600F012FA0346FB7403E00123AF
:1033E400FB7400E000BFFB7C002B0BD15149514B17
:1033F400D3F8883023F440027B68DB6C1343C1F8B4
:10340400883001E0FB7CBB747B681B6803F40033E9
:10341400002B00F09E8000237B74464B9B6D03F0D1
:103424008053002B01D1012300E00023002B0DD099
:10343400404A404B9B6D43F0805393653D4B9B6DDD
:1034440003F08053BB60BB6801237B743A4A3A4B58
:103454001B6843F480731360FDF780FDF86009E096
:10346400FDF77CFD0246FB68D31A022B02D9032325
:10347400FB7405E0304B1B6803F48073002BEFD022
:10348400FB7C002B5AD12B4BD3F8903003F44073C0
:103494007B617B69002B1ED07B681A6E7B699A4224
:1034A40019D0244BD3F8903023F440737B61214A24
:1034B400204BD3F8903043F48033C2F890301D4A47
:1034C4001C4BD3F8903023F48033C2F89030194A5F
:1034D4007B69C2F890307B6903F00103002B16D09E
:1034E400FDF73CFDF8600BE0FDF738FD0246FB6894
:1034F400D31A41F28832934202D90323FB7406E0C3
:103504000C4BD3F8903003F00203002BECD0FB7C7F
:10351400002B0BD10749074BD3F8903023F44072AA
:103524007B681B6E1343C1F8903009E0FB7CBB74CD
:1035340006E000BF0010024000700040FB7CBB743A
:103544007B7C012B05D1AC4AAB4B9B6D23F08053A4
:1035540093657B681B6803F00103002B0AD0A6491E
:10356400A54BD3F8883023F003027B681B6A13430E
:10357400C1F888307B681B6803F00203002B0AD073
:103584009D499D4BD3F8883023F00C027B685B6A1D
:103594001343C1F888307B681B6803F00403002BD5
:1035A4000AD09549944BD3F8883023F030027B68D5
:1035B4009B6A1343C1F888307B681B6803F00803D7
:1035C400002B0AD08C498C4BD3F8883023F0C002EE
:1035D4007B68DB6A1343C1F888307B681B6803F09F
:1035E4002003002B0AD08449834BD3F8883023F47A
:1035F40040627B681B6B1343C1F888307B681B688F
:1036040003F40073002B0AD07B497B4BD3F888303A
:1036140023F440227B685B6C1343C1F888307B68D9
:103624001B6803F48063002B0AD07349724BD3F8F0
:10363400883023F440127B689B6C1343C1F88830B4
:103644007B681B6803F04003002B0AD06A496A4B6D
:10365400D3F8883023F440527B685B6B1343C1F882
:1036640088307B681B6803F08003002B0AD0624912
:10367400614BD3F8883023F440427B689B6B13433F
:10368400C1F888307B681B6803F48073002B0AD070
:103694005949594BD3F8883023F440327B68DB6BAB
:1036A4001343C1F888307B681B6803F48013002B34
:1036B4000AD05149504BD3F89C3023F003027B6865
:1036C4001B6C1343C1F89C307B681B6803F4002314
:1036D400002B28D04849484BD3F8883023F0406267
:1036E4007B681B6D1343C1F888307B681B6DB3F195
:1036F400006F06D1404A404BDB6843F48013D3602B
:1037040011E07B681B6DB3F1806F0CD17B680433CF
:103714000121184600F072F80346FB74FB7C002B71
:1037240001D0FB7CBB747B681B6803F48023002BF3
:1037340028D03149304BD3F8883023F040627B687D
:103744005B6D1343C1F888307B685B6DB3F1006F28
:1037540006D1294A284BDB6843F48013D36011E077
:103764007B685B6DB3F1806F0CD17B6804330121FE
:10377400184600F043F80346FB74FB7C002B01D091
:10378400FB7CBB747B681B6803F48043002B1CD058
:103794001949194BD3F8883023F040527B689B6D4C
:1037A4001343C1F888307B689B6DB3F1805F0CD103
:1037B4007B6804330221184600F020F80346FB74AA
:1037C400FB7C002B01D0FB7CBB747B681B6803F47F
:1037D4008033002B0AD00849074BD3F8883023F0F4
:1037E40000427B68DB6D1343C1F88830BB7C18460C
:1037F4001837BD4680BD00BF0010024080B584B0BC
:1038040000AF786039600023FB73734BDB6803F00F
:103814000303002B18D0704BDB6803F003027B68B2
:103824001B689A420DD17B681B68002B09D06A4B38
:10383400DB681B0903F007035A1C7B685B689A4228
:1038440044D00123FB7341E07B681B68022B0CD03E
:10385400032B13D0012B20D15F4B1B6803F0020311
:10386400002B1DD10123FB731AE05B4B1B6803F48F
:103874008063002B16D10123FB7313E0564B1B68A6
:1038840003F40033002B0FD1534B1B6803F4802344
:10389400002B09D10123FB7306E00123FB7304E031
:1038A40000BF02E000BF00E000BFFB7B002B0DD196
:1038B4004948494BDB6823F073027B6819687B68CD
:1038C4005B68013B1B010B431343C360FB7B002B71
:1038D4007CD1414A404B1B6823F080631360FDF7A1
:1038E4003DFBB86009E0FDF739FB0246BB68D31A1B
:1038F400022B02D90323FB7305E0374B1B6803F04B
:103904000063002BEFD1FB7B002B5FD13B68002BC6
:1039140010D13148304B1B6923F0784323F4FE4324
:103924007A68926811027A68D268D2060A4313430D
:10393400036127E03B68012B12D12748264B1B6902
:1039440023F4C00323F4FE437A68926811027A6870
:1039540012695208013A52050A431343036111E004
:103964001D481D4B1B6923F0C06323F4FE437A6892
:10397400926811027A6852695208013A52060A435F
:1039840013430361144A144B1B6843F080631360B0
:10399400FDF7E4FAB86009E0FDF7E0FA0246BB6817
:1039A400D31A022B02D90323FB7305E00A4B1B68CD
:1039B40003F00063002BEFD0FB7B002B06D10649FC
:1039C400054B1A697B689B6913430B61FB7B1846A3
:1039D4001037BD4680BD00BF0010024080B584B0E2
:1039E40000AF78607B68002B01D1012393E07B68F2
:1039F4005B6A002B08D17B685B68B3F5827F09D0D2
:103A04007B680022DA6105E07B6800221A617B682A
:103A140000225A617B6800229A627B6893F85D30C9
:103A2400DBB2002B06D17B68002283F85C20786827
:103A3400FDF77EF97B68022283F85D207B681B68B2
:103A44007A681268126822F040021A607B68DB68A8
:103A5400B3F5E06F02D90023FB6002E04FF480531A
:103A6400FB607B68DB68B3F5706F07D07B68DB684D
:103A7400B3F5E06F02D07B6800229A627B681B6812
:103A84007A68526802F482717A68926802F4044295
:103A940011437A68126902F0020211437A6852698A
:103AA40002F0010211437A68926902F40072114330
:103AB4007A68D26902F0380211437A68126A02F015
:103AC400800211437A68926A02F400520A431A602F
:103AD4007B681B687A689269120C02F004017A68A8
:103AE400526A02F0100211437A68526B02F0080223
:103AF40011437A68D26802F470621143FA6802F4DE
:103B040080520A435A607B6800221A667B6801224D
:103B140083F85D20002318461037BD4680BD0000A1
:103B2400DFF834D0FDF77CF9002103E00B4B5B5840
:103B3400435004310A480B4B42189A42F6D30A4ABE
:103B440002E0002342F8043B084B9A42F9D300F008
:103B540011F8FCF728FDFEE700800220303C000845
:103B6400000000200C0000200C0000207001002048
:103B7400FEE7000070B50D4E0D4CA41BA4100025EB
:103B8400A54209D10B4E0C4C00F020F8A41BA41044
:103B94000025A54205D170BD56F82530984701355A
:103BA400EEE756F8253098470135F2E7283C00083F
:103BB400283C0008283C00082C3C0008024403462A
:103BC400934200D1704703F8011BF9E7F8B500BF31
:103BD400F8BC08BC9E467047F8B500BFF8BC08BCEA
:043BE4009E46704742
:103BE80000000000000000000102030406070809A5
:103BF800A0860100400D0300801A060000350C0065
:103C080040420F0080841E0000093D0000127A0027
:103C18000024F40000366E010048E801006CDC0264
:043C2800B9010008D6
:043C2C0095010008F6
:0C3C300000093D00100000000100000031
:0400000508003B258F
:00000001FF
